:020000040800F2
:100000004010002005450108414B0108153C01083E
:100010001D3C0108253C01082D3C010800000000A2
:10002000000000000000000000000000454B010837
:10003000494B0108000000004D4B010881380108C0
:10004000913801089338010895380108973801085C
:10005000993801089B3801089D3801089F3801082C
:10006000A1380108A3380108A5380108C9380108DA
:10007000E93801082739010865390108AB39010859
:10008000E9390108273A0108653A0108673A010889
:10009000693A01086B3A01086D3A01086F3A0108A4
:1000A000873A0108893A01088B3A01088D3A01081C
:1000B0008F3A0108913A0108933A0108953A0108EC
:1000C000973A0108993A01089B3A01089D3A0108BC
:1000D0009F3A0108A13A0108F33A0108453B01089B
:1000E000ED3B0108EF3B0108F13B0108F33B010840
:1000F000F53B0108F73B0108F93B0108FB3B010810
:10010000FD3B0108FF3B0108013C0108033C0108DD
:10011000053C0108073C0108093C01080B3C0108AB
:100120000D3C01080F3C0108113C0108133C01087B
:1001300080B50020DFF80C1C087000F09DFB01BDAD
:1001400001000A00DFF8003C1B7CD2B29A4209D3BE
:10015000DFF8F42B527C0B00DBB29A4202D301226F
:10016000100055E00A00DFF8E03B9B7CD2B29A42D7
:1001700009D3DFF8D42BD27C0B00DBB29A4202D336
:100180000222100044E00A00DFF8BC3B1B7DD2B223
:100190009A4209D3DFF8B02B527D0B00DBB29A42B2
:1001A00002D30422100033E00A00DFF89C3B9B7D61
:1001B000D2B29A4209D3DFF8902BD27D0B00DBB28A
:1001C0009A4202D30822100022E0C9B2402905DB7E
:1001D000C9B2642902DA0822100019E0C9B26529FF
:1001E00002D10122100013E0C9B2662902D1022215
:1001F00010000DE0C9B2672902D10422100007E007
:10020000C9B2682902D10822100001E000221000C2
:10021000C0B270472DE9F047040000F060FB824651
:10022000BAF1000F01D1672062E0E068CAF804006B
:1002300060788AF801002078C0B240089AF800106F
:1002400060F341018AF80010207810F001000028C6
:1002500009D0DF208AF80800DF208AF809005A2038
:100260008AF80A0008E0FE208AF80800FE208AF8D2
:100270000900A5208AF80A00A0788AF80B00207AE5
:100280008AF80C001AF10D00814660688046002053
:1002900006003000217AC0B2884207D2F6B218F8C0
:1002A0000600F6B209F80600761CF2E7207AC01CB8
:1002B0000600F6B2310089B21AF10A0003F048FED6
:1002C0000700F6B20AEB06008772E078FFF738FF06
:1002D0008AF8020051469AF8020003F02AFC050051
:1002E000EDB2002D02D0504600F036FB2800C0B21F
:1002F000BDE8F0872DE9F04786B0040004A8DFF8D8
:10030000E81CD1E90023C0E90023002500F0E7FA4A
:100310008246BAF1000F01D1672087E020789AF871
:10032000001060F341018AF8001060788AF801003B
:10033000A0788AF80200606881461AF10A008046B7
:1003400000200700FFB2072F08DA6068407804A990
:10035000FFB2C95D884201D07F1CF3E7FFB2072FCF
:1003600002DA0820070003E060688078001D0700BB
:100370000020060030003900C0B2C9B2884207D25E
:10038000F6B219F80600F6B208F80600761CF1E796
:100390009AF80000C0F34000C0B2002814D09AF8C8
:1003A0000A00A52806D1FE208AF80800FE208AF857
:1003B000090005E0DF208AF80800DF208AF809003C
:1003C000BF1C1AF1080080469AF80A00A52813D12C
:1003D000DFF8180C039000200290022001900F20FB
:1003E00000900223FFB23A0092B241469AF802000E
:1003F00004F001F8050012E000200390DFF8540D2E
:10040000029002200190002000900023FFB23A00E9
:1004100092B241469AF8020003F0EDFF0500EDB2FA
:10042000002D02D0504600F097FA002006B0BDE83B
:10043000F087F0B585B0040004A8DFF81C1D0A6839
:10044000026000200500EDB2042D80F281800020C2
:100450000600DFF8900BEDB2502101FB05F1405C86
:1004600010F00100002871D1DFF8780BEDB25021B7
:1004700001FB05F108448078DFF8C8180978884244
:1004800064D1F6B2032E0EDADFF8580BEDB250212C
:1004900001FB05F10844C07A04A9F6B2895D8842DF
:1004A00001D0761CEDE7F6B2032E4FDADFF8340BFD
:1004B000EDB2502101FB05F10844406800281AD034
:1004C0002100DFF8200BEDB2502202FB05F21044B0
:1004D000DFF8102BEDB2502303FB05F31A445268EA
:1004E0009047DFF8000BEDB2502101FB05F1084405
:1004F00000F032FA2AE0DFF8EC0AEDB2502101FBFD
:1005000005F108444078002815D000200390002011
:100510000290012001900020009000230222DFF8C9
:100520003C1CDFF8C00AEDB2502707FB05F7384442
:10053000407803F060FFDFF8AC0AEDB2502101FB18
:1005400005F1084400F008FA002002E06D1C7AE78B
:10055000682005B0F0BDF0B583B004000D001600B2
:1005600000208DF80400DFF8DC07067020784F28A3
:1005700006D160784B2803D12000FFF75AFF7AE1BB
:100580006B4601AA2900C9B2200000F005FA070055
:10059000FFB2002F02D03800C0B26CE1F6B2102ECC
:1005A0000CD1DFF8A407007850F00400DFF89817AA
:1005B00008704FF49670DFF80C1D088000984078A2
:1005C000612800F01581622800F01681632800F090
:1005D0001781642800F01881652800F019816628C9
:1005E00000F01A81672800F01B81682800F01C8148
:1005F000692800F01D81702800F01E81712800F02C
:100600001F81722800F02081732800F02181742856
:1006100000F02281752800F02381762800F02481E3
:10062000782800F09D807A2800F0B2807B287BD06B
:100630007C2800F0B5807D2800F0A2807E2800F0A4
:10064000AF80862800F0B080872879D0982800F005
:10065000B380992800F0AC809B286DD09C2800F0D6
:10066000BB809D2800F0AC809E2800F08180A728E8
:1006700000F08A80B72853D0B8282DD0B92857D099
:10068000C4282DD0C72800F08780D62820D0D728AE
:1006900072D0D92814D0E52816D0E7287CD0E928D4
:1006A00062D0F12820D0F22832D0F32834D0F428B8
:1006B0001ED0F52824D0F6281ED0FA2824D0D7E062
:1006C000009800F0E8F9D5E0009800F03FFBD1E099
:1006D000009800F0DCFBCDE0009800F08BFCC9E056
:1006E000009800F03DFDC5E0009800F03AFDC1E043
:1006F000009800F0E9FDBDE0009800F095FEB9E03B
:10070000009800F03CFFB5E0009800F0DFFFB1E09A
:10071000009801F081F8ADE0009801F02DF9A9E012
:10072000009801F046F9A5E0009801F077F9A1E002
:10073000009801F0B5F99DE0009801F0FDF999E00D
:100740000098C078AB2803D000980079B62803D170
:10075000009801F02DFA02E0009801F0D9FE89E03E
:10076000009801F061FA85E0009801F0F8FA81E064
:10077000009801F02FFB7DE0009801F08AFB79E002
:10078000009801F0B3FB75E0009801F0FDFB71E00B
:10079000009801F097FC6DE0009801F05CFD69E0C5
:1007A000009801F0D2FD65E0009801F03FFF61E0A4
:1007B000009801F0D1FF5DE0009802F07DF859E06B
:1007C0009DF80400002803D1009802F00CF902E023
:1007D000009800F00EFA4DE000988078022803D1CE
:1007E000009802F0A2F902E0009803F097F841E0C7
:1007F000009802F035FA3DE0009802F09DFA39E0E9
:10080000009802F04EFB35E0009802F0E8FB31E082
:10081000009802F053FC2DE0009802F0E7FC29E07C
:10082000009802F027FE25E0009802F08FFE21E0FC
:10083000009802F097FE1DE0009802F027FF19E0F3
:10084000009802F0FFFF15E0009803F010F811E0A7
:10085000009803F021F80DE0009803F032F809E069
:10086000009803F043F805E0009802F05AFD01E01B
:10087000682000E00020FEBD0020C0B2042819DA84
:100880000021DFF86027C0B2502303FB00F3D154EE
:10089000DFF85017C0B2502202FB00F2895C51F021
:1008A0000101DFF84027C0B2502303FB00F3D1540D
:1008B000401CE2E7704701000022D2B2042A0CDAA1
:1008C000DFF82007D2B2502303FB02F31844814221
:1008D00001D1002002E0521CEFE7652070470021A3
:1008E000C9B2042936DADFF8FC06C9B2502202FB8D
:1008F00001F2805C10F00100002829D00020DFF810
:10090000E426C9B2502303FB01F3D0540020DFF8E2
:10091000D426C9B2502303FB01F31A4450600020CF
:10092000DFF8C026C9B2502303FB01F31A4450700C
:100930000020DFF8B026C9B2502303FB01F31A44AC
:100940009070DFF8A006C9B250225143084402E07B
:10095000491CC5E70020704710B504002000FFF7D0
:10096000AAFF002816D12078C0F34000C0B20028AA
:1009700004D014F1080003F029FE03E014F10A008A
:1009800003F024FE00202070207850F00100207039
:10099000002000E0652010BD2DE9FC4704000D009B
:1009A00016001F006846DFF8201DD1E90023C0E9CA
:1009B000002300208146A0460020824648462900A8
:1009C000C0B2C9B288420ED298F80000FE2803D007
:1009D00098F80000DF2806D118F101081AF00F0A74
:1009E0001AF1010AEAE75FFA8AFABAF1020F02DBAA
:1009F0000120307001E000203070EDB2032D01D2F3
:100A00006B2046E098F80000A52805D098F8000073
:100A10005A2801D06A203CE0EDB298F80200001D8F
:100A2000854201D26B2034E00320814600208246BB
:100A30005FFA8AFABAF1070F0BDA98F801006946F3
:100A40005FFA8AFA11F80A10884202D01AF1010AF4
:100A5000EEE75FFA8AFABAF1070F02DA19F1040930
:100A600003E098F8020010EB090944465FFA89F99F
:100A7000494689B2200003F06BFA5FFA89F914F84D
:100A80000910C0B2814201D06D2002E0C7F8008099
:100A90000020BDE8F68730B583B0040020785A28DE
:100AA00040F0938000200500EDB2042D43DADFF81A
:100AB0003405EDB2502101FB05F1405C10F001005E
:100AC000002836D1DFF81C05EDB2502101FB05F1FD
:100AD0000844C07AD9282CD1DFF80805EDB250219E
:100AE00001FB05F10844807896490978884220D1B5
:100AF000DFF8F004EDB2502101FB05F10844407B22
:100B0000E178884215D1DFF8DC04EDB2502101FB19
:100B100005F10844807B217988420AD1DFF8C404BA
:100B2000EDB2502101FB05F10844C07B6179884298
:100B300001D06D1CB8E7EDB2042D59DADFF8A4043A
:100B4000EDB2502101FB05F108444068002811D0A6
:100B50002100DFF89004EDB2502202FB05F21044B0
:100B6000DFF88024EDB2502303FB05F31A445268EA
:100B7000904720E0DFF86C04EDB2502101FB05F155
:100B800008444078002816D09DF8000050F001007D
:100B90008DF80000019400208DF80100DFF8440476
:100BA000EDB2502101FB05F1084440788DF80200B8
:100BB0006846FFF79FFBDFF82C04EDB2502101FBE4
:100BC00005F10844FFF7C8FE12E09DF8000050F060
:100BD00001008DF8000001945A4800788DF801005A
:100BE000E078FFF7ADFA8DF802006846FFF782FB68
:100BF00037BD30B583B0040020785A2840F08D808E
:100C000000200500EDB2042D43DADFF8D803EDB281
:100C1000502101FB05F1405C10F00100002836D1A5
:100C2000DFF8C003EDB2502101FB05F10844C07AA2
:100C30009D282CD1DFF8AC03EDB2502101FB05F16A
:100C4000084480783F490978884220D1DFF894032E
:100C5000EDB2502101FB05F10844407BE178884268
:100C600015D1DFF88003EDB2502101FB05F10844F6
:100C7000807B217988420AD1DFF86803EDB25021E8
:100C800001FB05F10844C07B6179884201D06D1CED
:100C9000B8E7EDB2042D53DAD248EDB2502101FB92
:100CA00005F10844406800280FD02100CD48EDB27E
:100CB000502202FB05F21044CA4AEDB2502303FB56
:100CC00005F31A44526890471EE0C648EDB2502121
:100CD00001FB05F108444078002815D09DF800007C
:100CE00050F001008DF80000019400208DF8010003
:100CF000BC48EDB2502101FB05F1084440788DF865
:100D000002006846FFF7F6FAB648EDB2502101FB43
:100D100005F10844FFF720FE12E09DF8000050F0B6
:100D200001008DF800000194064800788DF801005C
:100D3000E078FFF705FA8DF802006846FFF7DAFA67
:100D400037BD00009D9C0020A89A002030B583B0DC
:100D5000040020785A2840F0878000200500EDB27A
:100D6000042D3DDA9F48EDB2502101FB05F1405CB6
:100D700010F00100002831D19A48EDB2502101FB5A
:100D800005F10844C07AE52828D19648EDB25021F3
:100D900001FB05F1084480789549097888421DD106
:100DA0009048EDB2502101FB05F10844407BE17809
:100DB000884213D18B48EDB2502101FB05F1084464
:100DC000807B2179884209D18648EDB2502101FB10
:100DD00005F10844C07B6179884201D06D1CBEE7F3
:100DE000EDB2042D52DA7F48EDB2502101FB05F13E
:100DF0000844406800280FD021007A48EDB2502204
:100E000002FB05F21044774AEDB2502303FB05F3D1
:100E10001A44526890471EE07248EDB2502101FB1F
:100E200005F108444078002815D09DF8000050F0E6
:100E300001008DF80000019400208DF80100694840
:100E4000EDB2502101FB05F1084440788DF8020015
:100E50006846FFF74FFA6348EDB2502101FB05F1F8
:100E60000844FFF779FD11E09DF8000050F0010003
:100E70008DF8000001945E4800788DF8010004F0C0
:100E800042FA8DF802006846FFF734FA37BD30B5F4
:100E900083B0040020785A2840F09180002005009B
:100EA000EDB2042D47DA4F48EDB2502101FB05F1B8
:100EB000405C10F0010000283BD14A48EDB25021BF
:100EC00001FB05F10844C07AD62832D14548EDB27D
:100ED000502101FB05F10844807845490978884292
:100EE00027D14048EDB2502101FB05F10844407B79
:100EF000E17888421DD13B48EDB2502101FB05F15C
:100F00000844807B2179884213D13648EDB25021C4
:100F100001FB05F10844C07B6179884209D1314861
:100F2000EDB2502101FB05F10844007CA179884213
:100F300001D06D1CB4E7EDB2042D52DA2948EDB2B0
:100F4000502101FB05F10844406800280FD0210022
:100F50002448EDB2502202FB05F21044214AEDB2C2
:100F6000502303FB05F31A44526890471EE01D48C6
:100F7000EDB2502101FB05F108444078002815D05E
:100F80009DF8000050F001008DF800000194002051
:100F90008DF801001348EDB2502101FB05F1084422
:100FA00040788DF802006846FFF7A4F90D48EDB2CD
:100FB000502101FB05F10844FFF7CEFC11E09DF83C
:100FC000000050F001008DF80000019408480078FE
:100FD0008DF8010004F097F98DF802006846FFF7DC
:100FE00089F937BDDC930020E0480108D93A0008B0
:100FF0009D9C002030B583B0040020785A2840F032
:10100000948000200500EDB2042D44DADFF80408D6
:10101000EDB2502101FB05F1405C10F00100002809
:1010200037D1DFF8F007EDB2502101FB05F108449C
:10103000C07AB8282DD1DFF8DC07EDB2502101FBD2
:1010400005F108448078DFF8881D0978884220D1AE
:10105000DFF8C007EDB2502101FB05F10844407CE8
:10106000E178884215D1DFF8AC07EDB2502101FBE1
:1010700005F10844807C217988420AD1DFF8940781
:10108000EDB2502101FB05F10844C07C6179884232
:1010900001D06D1CB7E7EDB2042D5ADADFF8740702
:1010A000EDB2502101FB05F108444068002811D041
:1010B0002100DFF86007EDB2502202FB05F2104478
:1010C000DFF85027EDB2502303FB05F31A445268B2
:1010D000904720E0DFF83C07EDB2502101FB05F11D
:1010E00008444078002816D09DF8000050F0010018
:1010F0008DF80000019400208DF80100DFF814073E
:10110000EDB2502101FB05F1084440788DF8020052
:101110006846FFF7EFF8DFF8FC06EDB2502101FB5F
:1011200005F10844FFF718FC13E09DF8000050F0AB
:1011300001008DF800000194DFF8940C00788DF820
:101140000100E079FEF7FCFF8DF802006846FFF72A
:10115000D1F837BD9D3A00081C4B0108AE3F00088E
:10116000704730B583B0040020785A2840F094804E
:1011700000200500EDB2042D44DADFF89806EDB248
:10118000502101FB05F1405C10F00100002837D12F
:10119000DFF88006EDB2502101FB05F10844C07A6A
:1011A000F1282DD1DFF86C06EDB2502101FB05F1DD
:1011B00008448078DFF8181C0978884220D1DFF8CD
:1011C0005406EDB2502101FB05F10844407BE17863
:1011D000884215D1DFF83C06EDB2502101FB05F144
:1011E0000844807B217988420AD1DFF82806EDB2D5
:1011F000502101FB05F10844C07B6179884201D090
:101200006D1CB7E7EDB2042D5ADADFF80806EDB22F
:10121000502101FB05F108444068002811D021004D
:10122000DFF8F005EDB2502202FB05F21044DFF8C2
:10123000E425EDB2502303FB05F31A4452689047AE
:1012400020E0DFF8D005EDB2502101FB05F10844A4
:101250004078002816D09DF8000050F001008DF86D
:101260000000019400208DF80100DFF8A805EDB220
:10127000502101FB05F1084440788DF802006846D2
:10128000FFF738F8DFF88C05EDB2502101FB05F1CE
:101290000844FFF761FB13E09DF8000050F00100E7
:1012A0008DF800000194DFF8280B00788DF801001C
:1012B000E078FEF745FF8DF802006846FFF71AF860
:1012C00037BD00007C9C002030B583B0040020783E
:1012D0005A2840F0948000200500EDB2042D44DA35
:1012E000DFF83005EDB2502101FB05F1405C10F054
:1012F0000100002837D1DFF81C05EDB2502101FBB9
:1013000005F10844C07AF4282DD1DFF80805EDB2C4
:10131000502101FB05F108448078DFF8B41A097800
:10132000884220D1DFF8EC04EDB2502101FB05F139
:101330000844407BE178884215D1DFF8D804EDB24B
:10134000502101FB05F10844807B217988420AD1B4
:10135000DFF8C004EDB2502101FB05F10844C07B69
:101360006179884201D06D1CB7E7EDB2042D5ADADD
:10137000DFF8A004EDB2502101FB05F108444068FC
:10138000002811D02100DFF88C04EDB2502202FBBE
:1013900005F21044DFF87C24EDB2502303FB05F383
:1013A0001A445268904720E0DFF86804EDB25021FB
:1013B00001FB05F108444078002816D09DF8000094
:1013C00050F001008DF80000019400208DF801001C
:1013D000DFF84004EDB2502101FB05F108444078EC
:1013E0008DF802006846FEF785FFDFF82804EDB2AD
:1013F000502101FB05F10844FFF7AEFA13E09DF818
:10140000000050F001008DF800000194DFF8C009E1
:1014100000788DF80100E078FEF792FE8DF802006A
:101420006846FEF767FF37BD30B583B0040020780B
:101430005A2840F08F8000200500EDB2042D43DAD9
:10144000DFF8D003EDB2502101FB05F1405C10F054
:101450000100002836D1DFF8BC03EDB2502101FBBA
:1014600005F10844C07AF6282CD1DFF8A803EDB2C4
:10147000502101FB05F108448078DFF85419097800
:1014800088421FD1DFF88C03EDB2502101FB05F13A
:101490000844407BE178884214D1DFF87803EDB24C
:1014A000502101FB05F10844807B2179884209D154
:1014B000D848EDB2502101FB05F10844C07B6179A9
:1014C000884201D06D1CB8E7EDB2042D56DAD14840
:1014D000EDB2502101FB05F10844406800280FD00F
:1014E0002100CC48EDB2502202FB05F21044C94A5B
:1014F000EDB2502303FB05F31A445268904720E0F5
:10150000C448EDB2502101FB05F1084440780028A1
:1015100017D09DF8000050F001008DF800000194F4
:1015200000208DF801000420A070BA48EDB25021CF
:1015300001FB05F1084440788DF802006846FEF78B
:10154000D9FEB448EDB2502101FB05F10844FFF784
:1015500003FA13E09DF8000050F001008DF8000040
:101560000194DFF86C0800788DF80100E078FEF750
:10157000E7FD8DF802006846FEF7BCFE37BD30B5CA
:1015800083B0040020785A2840F0888000200500AD
:10159000EDB2042D3EDA9F48EDB2502101FB05F17A
:1015A000405C10F00100002832D19A48EDB2502181
:1015B00001FB05F10844C07AF62829D19548EDB21F
:1015C000502101FB05F108448078DFF80418097800
:1015D00088421DD18F48EDB2502101FB05F108442E
:1015E000407BE178884213D18A48EDB2502101FB5B
:1015F00005F10844807B2179884209D18548EDB204
:10160000502101FB05F10844C07B6179884201D07B
:101610006D1CBDE7EDB2042D54DA7E48EDB25021C9
:1016200001FB05F10844406800280FD021007948EB
:10163000EDB2502202FB05F21044764AEDB250237F
:1016400003FB05F31A44526890471EE07148EDB25F
:10165000502101FB05F108444078002815D09DF881
:10166000000050F001008DF80000019400208DF87A
:1016700001006848EDB2502101FB05F108444078B3
:101680008DF802006846FEF735FE6248EDB2502143
:1016900001FB05F10844FFF75FF913E09DF8000036
:1016A00050F001008DF800000194DFF82407007865
:1016B0008DF80100E078FEF743FD8DF802006846E2
:1016C000FEF718FE37BD0000E848010830B583B0CA
:1016D000040020785A2840F0888000200500EDB2F0
:1016E000042D3EDA4B48EDB2502101FB05F1405C80
:1016F00010F00100002832D14648EDB2502101FB24
:1017000005F10844C07AFA2829D14248EDB25021A7
:1017100001FB05F108448078DFF8B41609788842A7
:101720001DD13C48EDB2502101FB05F10844407B3E
:10173000E178884213D13748EDB2502101FB05F121
:101740000844807B2179884209D13248EDB250218A
:1017500001FB05F10844C07B6179884201D06D1C12
:10176000BDE7EDB2042D54DA2A48EDB2502101FB59
:1017700005F10844406800280FD021002548EDB24B
:10178000502202FB05F21044224AEDB2502303FB23
:1017900005F31A44526890471EE01E48EDB25021EE
:1017A00001FB05F108444078002815D09DF80000A1
:1017B00050F001008DF80000019400208DF8010028
:1017C0001448EDB2502101FB05F1084440788DF832
:1017D00002006846FEF78EFD0E48EDB2502101FB77
:1017E00005F10844FFF7B8F813E09DF8000050F049
:1017F00001008DF800000194DFF8D40500788DF821
:101800000100E078FEF79CFC8DF802006846FEF7C8
:1018100071FD37BDDC93002030B583B00400207823
:101820005A2840F0948000200500EDB2042D44DADF
:10183000DFF8F40DEDB2502101FB05F1405C10F032
:101840000100002837D1DFF8E00DEDB2502101FB97
:1018500005F10844C07AF2282DD1DFF8CC0DEDB2A5
:10186000502101FB05F108448078DFF86415097800
:10187000884220D1DFF8B00DEDB2502101FB05F117
:101880000844407BE178884215D1DFF89C0DEDB229
:10189000502101FB05F10844807B217988420AD15F
:1018A000DFF8840DEDB2502101FB05F10844C07B47
:1018B0006179884201D06D1CB7E7EDB2042D5ADA88
:1018C000DFF8640DEDB2502101FB05F108444068DA
:1018D000002811D02100DFF8500DEDB2502202FB9C
:1018E00005F21044DFF8402DEDB2502303FB05F361
:1018F0001A445268904720E0DFF82C0DEDB25021D9
:1019000001FB05F108444078002816D09DF800003E
:1019100050F001008DF80000019400208DF80100C6
:10192000DFF8040DEDB2502101FB05F108444078C9
:101930008DF802006846FEF7DDFCDFF8EC0CEDB236
:10194000502101FB05F10844FFF706F813E09DF86C
:10195000000050F001008DF800000194DFF87004E1
:1019600000788DF80100E078FEF7EAFB8DF80200C0
:101970006846FEF7BFFC37BD1CB504002078A528DB
:1019800016D19DF8000050F001008DF80000019480
:10199000DFF83C0400788DF8010003F0B4FC8DF80A
:1019A00002009DF80200002802D16846FEF7A2FC62
:1019B00013BD38B50400E078AB2802D120790028A7
:1019C00000D02AE0FEF78BFF0500002D25D02878F7
:1019D00010F0E70050F00800287000206870DF2049
:1019E0002872DF2068725A20A872B720E87204209B
:1019F000A881AB20A873DFF85C0D8078E873DFF86E
:101A0000540DC0782874DFF84C0D007968742900F3
:101A1000DFF8BC03007802F08CF831BDF8B50400A3
:101A20000025E078AB283AD10220070010370322C6
:101A3000390089B2201D04F0EAFF0500EDB2002D47
:101A40002DD12079DFF80C1D88706079DFF8041D36
:101A5000C870A079DFF8FC1C0871FEF740FF060093
:101A6000002E1CD0307810F0E70050F008003070E5
:101A700000207070DF203072DF2070725A20B07248
:101A80007B20F0720320B081AB20B0734F20F07345
:101A90004B2030743100CE48007802F04AF8F1BD96
:101AA00030B583B00400E078AB2802D1207900285B
:101AB00000D040E0FEF713FF0500002D3BD0287852
:101AC00010F0E70050F00800287000206870DF2058
:101AD0002872DF2068725A20A872B920E8720720A5
:101AE000A881AB20A873684605F028FABDF8060067
:101AF0003030C0B201F0AEFFE8739DF8050001F090
:101B0000A9FF28749DF8040001F0A4FF68749DF8F3
:101B1000020001F09FFFA8749DF8010001F09AFFF8
:101B2000E8749DF8000001F095FF28752900A84889
:101B3000007801F0FEFF37BD30B583B00400E078D7
:101B4000AB2834D1207910F5FA60ADF80600607941
:101B50008DF80500A0798DF80400E0798DF8020079
:101B6000207A8DF80100607A8DF80000FEF7B7FE4C
:101B70000500002D1BD0287810F0E70050F0080079
:101B80002870684605F072F8002068705A20A87224
:101B90009B20E8720320A881AB20A8734F20E87334
:101BA0004B20287429008A48007801F0C2FF37BD15
:101BB00038B50400FEF793FE0500002D33D02878D9
:101BC00010F0E70050F008002870002068705A20DC
:101BD000A8728720E872AB20A873DFF8780B007832
:101BE000C0F30010C0B200280ED00420A881DFF896
:101BF000640B407BE873DFF85C0B807B2874DFF8B4
:101C0000540BC07B687409E00320A881DFF8440B03
:101C1000807BE873DFF83C0BC07B287429006C489C
:101C2000007801F086FF31BDF8B5040000250D20D5
:101C300007001037A07803282FD1E078AB2840F0B8
:101C40008D8001208DF8000020798DF801006079E9
:101C50008DF802000322390089B2684604F0D7FEED
:101C60000500EDB2002D79D10322390089B2684612
:101C700004F0ACFE0500EDB2002D6FD19DF8000020
:101C8000002809D19DF801002179884204D19DF8EE
:101C900002006179884234D060E0A07804282FD116
:101CA000E078AB285AD120798DF8000060798DF862
:101CB0000100A0798DF802000322390089B268463C
:101CC00004F0A5FE0500EDB2002D47D10322390036
:101CD00089B2684604F07AFE0500EDB2002D3DD1D0
:101CE0009DF800002179884209D19DF801006179B1
:101CF000884204D19DF80200A179884201D02DE0EC
:101D00002CE09DF80000DFF84C1A48739DF80100A4
:101D1000DFF8401A88739DF80200DFF8381AC8739C
:101D2000FEF7DDFD0600002E18D0307810F0E70039
:101D300050F008003070002070705A20B072782087
:101D4000F0720320B081AB20B0734F20F0734B20B2
:101D5000307431001E48007801F0EBFEF1BD38B55B
:101D60000400E078AB2831D1FEF7B9FD0500002D65
:101D70002CD0287810F0E70050F0080028700020E0
:101D800068705A20A872E920E8720720A881AB2069
:101D9000A873DFF8C009007CE873DFF8B809407C5D
:101DA0002874DFF8B009807C6874DFF8A809C07C6B
:101DB000A874DFF8A009007DE874DFF89809407D79
:101DC000287529000248007801F0B3FE31BD0000FB
:101DD0009D9C0020F0B583B0040000250027E0782A
:101DE000AB2855D120798DF8000060798DF801007D
:101DF000A0798DF80200E0798DF80300207A8DF843
:101E00000400607A8DF805001020070010370622C4
:101E1000390089B2684604F0FAFD0500EDB2002DE4
:101E200036D12079DFF82C1908746079DFF824198D
:101E30004874A079DFF81C198874E079DFF8141968
:101E4000C874207ADFF80C190875607ADFF8041975
:101E50004875FEF744FD0600002E19D0307810F0CA
:101E6000E70050F008003070002070705A20B07207
:101E70009E20F0720320B081AB20B0734F20F0732E
:101E80004B2030743100DFF8EC0D007801F051FE8A
:101E9000F7BD38B50400E078AB2826D1FEF71FFD6A
:101EA0000500002D21D0287810F0E70050F0080040
:101EB0002870002068705A20A872D720E87202208B
:101EC000A881AB20A873DFF88C08007810F001001F
:101ED000002802D00020E87301E00120E873290007
:101EE000DFF8900D007801F024FE31BDF8B5040054
:101EF00000250027E078AB2845D1DFF858080078A6
:101F00008DF800002079002806D09DF8000010F020
:101F1000FE008DF8000005E09DF8000050F0010083
:101F20008DF800000020070010370122390089B227
:101F3000684604F06CFD0500EDB2002D23D19DF83C
:101F40000000DFF810180870FEF7C9FC0600002E2C
:101F500019D0307810F0E70050F008003070002001
:101F600070705A20B0727D20F0720320B081AB20D7
:101F7000B0734F20F0734B2030743100DFF8F40C55
:101F8000007801F0D6FDF1BDF8B50400E078AB288B
:101F900040F09780FEF7A3FC0700002F00F091802F
:101FA000387810F0E70050F00800387000207870A2
:101FB0005A20B872A720F8721220B881AB20B873EB
:101FC000DFF89007007EF873DFF88807407E3874EA
:101FD000DFF88007807E7874DFF87807C07EB874F9
:101FE000DFF8700790F83E007875DFF8680790F822
:101FF0003F00B875DFF85C0790F84000F875DFF82F
:10200000540790F841003876DFF84807808F80B297
:10201000DFF84017898F090251EA1020A7F8130052
:10202000DFF83007B0F8620080B2DFF82817B1F8A7
:102030006210090251EA1020A7F8190000200500DB
:1020400000200600F6B2052E0ADA0A204543DFF822
:102050000407F6B2304490F864004519761CF1E7A5
:10206000280080B2000AF8763D7700200500F6B21D
:10207000092E0ADA0A204543DFF8D806F6B23044C2
:1020800090F864004519761CF1E7280080B2000A38
:102090007877BD7700200500F6B20B2E0ADA0A2009
:1020A0004543DFF8B006F6B2304490F864004519B5
:1020B000761CF1E7FD773900DFF8B80B007801F006
:1020C00038FDF1BD2DE9F04104000025E078AB2892
:1020D00040F0BF80002080462079DFF8781608762F
:1020E0006079DFF870164876A079DFF86816887690
:1020F000E079DFF86016C876A07ADFF8581681F824
:102100003E00E07ADFF84C1681F83F00207BDFF8D4
:10211000441681F84000607BDFF8381681F84100F2
:10212000208980B22189090251EA1020DFF82416A3
:102130008887E08980B2E189090251EA1020DFF83E
:102140001416A1F86200207C07003F02607CC719CA
:10215000052080464046B0F1010880B200280FD02B
:102160000A20B7FBF0F100FB1170DFF8E8151FFA49
:1021700088F8414481F864000A20B7FBF0F7E9E7EA
:10218000A07C07003F02E07CC7190420804640463F
:10219000B0F1010880B200280FD00A20B7FBF0F19F
:1021A00000FB1170DFF8AC151FFA88F8414481F884
:1021B00069000A20B7FBF0F7E9E7207D070002205D
:1021C00080464046B0F1010880B200280FD00A20B6
:1021D000B7FBF0F100FB1170DFF878151FFA88F8F3
:1021E000414481F86D000A20B7FBF0F7E9E76F2062
:1021F000804618200700B8EB07081037424692B215
:10220000390089B2DFF8F00D04F001FC0500EDB2F1
:10221000002D1ED1FEF763FB0600002E19D030788A
:1022200010F0E70050F008003070002070705A2065
:10223000B0727A20F0720320B081AB20B0734F20CF
:10224000F0734B2030743100DFF8280A007801F079
:1022500070FCBDE8F08170B50400E078AB2873D164
:10226000FEF73DFB0600002E6ED0307810F0E70040
:1022700050F008003070002070705A20B072607802
:10228000F072AB20B073002005006078C72827D11A
:10229000EDB2202D11DADFF8BC04EDB22844007F46
:1022A00000280AD0DFF8AC04EDB22844007FEDB27C
:1022B00006EB0501C8736D1CEAE7DFF89804808F10
:1022C00080B2000AEDB206EB0501C8736D1CDFF8A1
:1022D0008404808FEDB206EB0501C8736D1C2AE003
:1022E000EDB2202D13DADFF86C04EDB2284490F83B
:1022F000420000280BD0DFF85C04EDB2284490F8CF
:102300004200EDB206EB0501C8736D1CE8E7DFF88B
:102310004404B0F8620080B2000AEDB206EB050199
:10232000C8736D1CDFF82C04B0F86200EDB206EB48
:102330000501C8736D1CEDB2681CB0813100DFF877
:102340003409007801F0F5FB70BD2DE9F0418AB049
:1023500004000025E078AB2840F0D780A078C01EAC
:1023600007000020804640463900C0B2C9B288420A
:102370000CD25FFA88F804EB0800007969465FFA2E
:1023800088F84144087118F10108ECE75FFA88F811
:10239000B8F1200F08DA002069465FFA88F8414456
:1023A000087118F10108F1E700208DF82300FFB251
:1023B00004EB07000079ADF824007F1CBDF8240071
:1023C0000002ADF82400BDF82400FFB204EB0701C1
:1023D00009790843ADF824007F1C60787C2836D149
:1023E000DC48007E8DF80000DA48407E8DF8010060
:1023F000D848807E8DF80200D648C07E8DF8030054
:102400001820070010372622FFB2390089B268462B
:1024100004F0FDFA0500EDB2002D76D100208046D3
:102420005FFA88F8B8F1200F0CDA68465FFA88F88E
:1024300040440079C7495FFA88F84144087718F1A9
:102440000108EDE7BDF82400C24988873EE06078C6
:102450007E283BD1BF4890F83E008DF80000BD4873
:1024600090F83F008DF80100BA4890F840008DF8D0
:102470000200B84890F841008DF803003E200700A4
:1024800010372622FFB2390089B2684604F0BFFA3D
:102490000500EDB2002D38D1002080465FFA88F8A3
:1024A000B8F1200F0DDA68465FFA88F840440079E9
:1024B000A8495FFA88F8414481F8420018F1010800
:1024C000ECE7BDF82400A349A1F86200FEF707FA83
:1024D0000600002E19D0307810F0E70050F0080008
:1024E0003070002070705A20B0726078F072032053
:1024F000B081AB20B0734F20F0734B2030743100AB
:10250000DFF87007007801F014FB0AB0BDE8F08135
:1025100030B583B0040020785A2869D10020050026
:10252000EDB2042D20DA4048EDB2502101FB05F157
:10253000405C10F00100002814D13B48EDB250215E
:1025400001FB05F10844C07A87280BD13648EDB26B
:10255000502101FB05F108448078DFF8181709784D
:10256000884201D06D1CDBE7EDB2042D5ADA2E480B
:10257000EDB2502101FB05F10844406800280FD05E
:1025800021002948EDB2502202FB05F21044264AF0
:10259000EDB2502303FB05F31A44526890471EE046
:1025A0002148EDB2502101FB05F108444078002894
:1025B00015D09DF8000010F0FE008DF80000019489
:1025C00000208DF801001848EDB2502101FB05F103
:1025D000084440788DF802006846FDF78BFE1248EB
:1025E000EDB2502101FB05F10844FEF7B5F919E001
:1025F0009DF8000010F0FE008DF800000194DFF857
:10260000740600788DF8010002F07DFE8DF802005E
:102610009DF80200002802D101208DF802006846D2
:10262000FDF768FE37BD0000DC93002030B583B0B5
:10263000040020785A2872D100200500EDB2042D44
:1026400023DADFF8080DEDB2502101FB05F1405C03
:1026500010F00100002816D1DFF8F00CEDB2502187
:1026600001FB05F10844C07A86280CD1DFF8DC0CA8
:10267000EDB2502101FB05F108448078DFF8F41534
:102680000978884201D06D1CD8E7EDB2042D60DADC
:10269000DFF8B80CEDB2502101FB05F108444068A9
:1026A000002811D02100DFF8A40CEDB2502202FB6B
:1026B00005F21044DFF8942CEDB2502303FB05F330
:1026C0001A445268904720E0DFF8800CEDB25021A8
:1026D00001FB05F108444078002816D09DF8000061
:1026E00010F0FE008DF80000019400208DF801002C
:1026F000DFF8580CEDB2502101FB05F10844407899
:102700008DF802006846FDF7F5FDDFF8400CEDB2EC
:10271000502101FB05F10844FEF71EF919E09DF870
:10272000000010F0FE008DF800000194DFF8440571
:1027300000788DF8010002F0E6FD8DF802009DF8AA
:102740000200002802D101208DF802006846FDF742
:10275000D1FD37BDA89A002030B583B004002078A1
:102760005A2840F0898000200500EDB2042D39DAA6
:10277000DFF8D80BEDB2502101FB05F1405C10F001
:10278000010000282CD1DFF8C40BEDB2502101FB71
:1027900005F10844C07A992822D1DFF8B00BEDB2D8
:1027A000502101FB05F108448078DFF8C81409784E
:1027B000884215D1DFF8940BEDB2502101FB05F1F1
:1027C0000844407BE17888420AD1DFF8800BEDB203
:1027D000502101FB05F10844807B2179884201D01A
:1027E0006D1CC2E7EDB2042D65DADFF8600BEDB2C7
:1027F000502101FB05F108444068002811D0210058
:10280000DFF8480BEDB2502202FB05F21044DFF86E
:102810003C2BEDB2502303FB05F31A44526890475A
:1028200020E0DFF8280BEDB2502101FB05F1084450
:102830004078002816D09DF8000010F0FE008DF8BA
:102840000000019400208DF80100DFF8000BEDB2CC
:10285000502101FB05F1084440788DF802006846DC
:10286000FDF748FDDFF8E40AEDB2502101FB05F168
:102870000844FEF771F81EE09DF8000010F0FE001D
:102880008DF800000194DFF8EC0300788DF801006A
:10289000E078C0B2000905000A204543E07810F056
:1028A0000F0045192800C0B2FDF74AFC8DF8020060
:1028B0006846FDF71FFD37BD30B583B004002078B2
:1028C0005A287CD100200500EDB2042D2DDADFF866
:1028D0007C0AEDB2502101FB05F1405C10F00100D3
:1028E000002820D1DFF8640AEDB2502101FB05F188
:1028F0000844C07A982816D1DFF8500AEDB250216A
:1029000001FB05F108448078DA49097888420AD148
:10291000DFF8380AEDB2502101FB05F10844407B95
:10292000E178884201D06D1CCEE7EDB2042D59DA72
:10293000DFF8180AEDB2502101FB05F108444068A8
:10294000002811D02100DFF8040AEDB2502202FB6A
:1029500005F21044DFF8F429EDB2502303FB05F330
:102960001A445268904720E0DFF8E009EDB25021A8
:1029700001FB05F108444078002816D09DF80000BE
:1029800010F0FE008DF80000019400208DF8010089
:10299000DFF8B809EDB2502101FB05F10844407899
:1029A0008DF802006846FDF7A5FCDFF8A009EDB23E
:1029B000502101FB05F10844FDF7CEFF12E09DF820
:1029C000000010F0FE008DF800000194A948007886
:1029D0008DF80100E078FDF7B3FB8DF80200684642
:1029E000FDF788FC37BD30B583B0040020785A2845
:1029F0007CD100200500EDB2042D2DDADFF84C0962
:102A0000EDB2502101FB05F1405C10F001000028FF
:102A100020D1DFF83809EDB2502101FB05F108445F
:102A2000C07A9D2816D1DFF82409EDB2502101FBB0
:102A300005F1084480788F49097888420AD1DFF887
:102A40000C09EDB2502101FB05F10844407BE1780F
:102A5000884201D06D1CCEE7EDB2042D64DADFF8B8
:102A6000EC08EDB2502101FB05F108444068002854
:102A700011D02100DFF8D408EDB2502202FB05F29C
:102A80001044DFF8C828EDB2502303FB05F31A44C5
:102A90005268904720E0DFF8B408EDB2502101FB06
:102AA00005F108444078002816D09DF8000010F089
:102AB000FE008DF80000019400208DF80100DFF881
:102AC0008C08EDB2502101FB05F1084440788DF8E7
:102AD00002006846FDF70EFCDFF87008EDB25021E9
:102AE00001FB05F10844FDF737FF1DE09DF80000EC
:102AF00010F0FE008DF8000001945E4800788DF81B
:102B00000100E078C0B2000905000A204543E078E2
:102B100010F00F0045192800C0B2FDF711FB8DF829
:102B200002006846FDF7E6FB37BDF8B50400E07823
:102B3000AB282CD1FDF7D3FE0700002F27D0387823
:102B400010F0E70050F008003870002078705A202C
:102B5000B8726078F8720220B881AB20B873DFF8E1
:102B6000B40D90F84500F87306200500EDB2290079
:102B700089B217F10A0001F0EBF90600EDB207EB9C
:102B80000500867239003B48007800F0D2FFF1BDA5
:102B90002DE9F84304000D001600607800285DD18F
:102BA000FDF79DFE8146B9F1000F57D099F800005E
:102BB00010F0E70050F0080089F80000002089F8C4
:102BC00001005A2089F80A00612089F80B00EDB253
:102BD000002D09D10220A9F80C004F2089F80E0021
:102BE0004B2089F80F0021E0EDB2012D12D1052014
:102BF000A9F80C004E2089F80E006F2089F80F000C
:102C0000412089F81000632089F811006B2089F8B1
:102C100012000BE00320A9F80C00452089F80E00F3
:102C2000522089F80F00522089F81000B9F80C00E2
:102C3000001D0700FFB2390089B219F10A0001F046
:102C400087F98046FFB209EB070080F80A80200070
:102C500004F082FD4946A07800F06BFFBDE8F183E7
:102C600010B50400DFF8B02C00210248007804F011
:102C7000E3FA10BD9D9C00202DE9F84304000D00EF
:102C800016006078072855D1FDF729FE8146B9F175
:102C9000000F4FD099F8000010F0E70050F0080046
:102CA00089F80000002089F801005A2089F80A00FC
:102CB000622089F80B0000200700EDB2002D0CD136
:102CC0004F20FFB209EB070188737F1C4B20FFB236
:102CD00009EB070188737F1C11E04520FFB209EB67
:102CE000070188737F1C5220FFB209EB070188732C
:102CF0007F1C5220FFB209EB070188737F1CFFB2D3
:102D0000A9F80C70B9F80C00001D0700FFB23900DB
:102D100089B219F10A0001F01BF98046FFB209EBF4
:102D2000070080F80A80200004F016FD4946A078CC
:102D300000F0FFFEBDE8F18310B50400DFF80C2DB4
:102D40000021DFF80C0D007804F056FC10BD2DE9D1
:102D5000F84304000D0016006078082840F09F80BA
:102D6000FDF7BDFD8146B9F1000F00F0988099F89C
:102D7000000010F0E70050F0080089F80000002083
:102D800089F801005A2089F80A00632089F80B00AD
:102D900000200700EDB2032D35D053D3052D19D0F7
:102DA00050D24220FFB209EB070188737F1C5520E7
:102DB000FFB209EB070188737F1C5320FFB209EBB8
:102DC000070188737F1C5920FFB209EB0701887344
:102DD0007F1C49E04620FFB209EB070188737F1C86
:102DE0005220FFB209EB070188737F1C4520FFB218
:102DF00009EB070188737F1C4520FFB209EB07012F
:102E000088737F1C30E04E20FFB209EB0701887306
:102E10007F1C6F20FFB209EB070188737F1C4120E4
:102E2000FFB209EB070188737F1C6E20FFB209EB2C
:102E3000070188737F1C7320FFB209EB07018873B9
:102E40007F1C11E04520FFB209EB070188737F1C4E
:102E50005220FFB209EB070188737F1C5220FFB29A
:102E600009EB070188737F1CFFB2A9F80C70B9F851
:102E70000C00001D0700FFB2390089B219F10A00E9
:102E800001F066F88046FFB209EB070080F80A807F
:102E9000200004F061FC4946A07800F04AFEBDE83D
:102EA000F18310B50400DFF8A82D0021DFF8A00B96
:102EB000007804F0CBFB10BD2DE9F84304000D00B1
:102EC00016006078062840F08880FDF708FD8146EE
:102ED000B9F1000F00F0818099F8000010F0E700D0
:102EE00050F0080089F80000002089F801005A20FD
:102EF00089F80A00642089F80B0000200700EDB271
:102F00002800002802D003281BD039E03800C0B2C6
:102F1000B18880B2884213D23068FFB2C05D0D28FC
:102F200004D03068FFB2C05D0A2800D108E03068E4
:102F3000FFB2C05DFFB209EB070188737F1CE5E7B4
:102F400030E04E20FFB209EB070188737F1C6F2031
:102F5000FFB209EB070188737F1C4120FFB209EB28
:102F6000070188737F1C6E20FFB209EB070188738D
:102F70007F1C7320FFB209EB070188737F1C11E0EF
:102F80004520FFB209EB070188737F1C5220FFB276
:102F900009EB070188737F1C5220FFB209EB070180
:102FA00088737F1CFFB2A9F80C70B9F80C00001DE3
:102FB0000700FFB2390089B219F10A0000F0C8FF1A
:102FC0008046FFB209EB070080F80A80200004F079
:102FD000C3FB4946A07800F0ACFDBDE8F18310B515
:102FE0000400DFF8703C00220021DFF8640A00785A
:102FF00004F0AAFA10BD0000C09A00202DE9F843A1
:1030000004000D0016006078062855D1FDF767FC16
:103010008146B9F1000F4FD099F8000010F0E70099
:1030200050F0080089F80000002089F801005A20BB
:1030300089F80A00652089F80B0000200700EDB22E
:10304000002D0CD14F20FFB209EB070188737F1CC4
:103050004B20FFB209EB070188737F1C11E045206C
:10306000FFB209EB070188737F1C5220FFB209EB06
:10307000070188737F1C5220FFB209EB0701887398
:103080007F1CFFB2A9F80C70B9F80C00001D0700F6
:10309000FFB2390089B219F10A0000F059FF8046E9
:1030A000FFB209EB070080F80A80200004F054FB0F
:1030B0004946A07800F03DFDBDE8F18310B504005D
:1030C000DFF8943B0022211DDFF88409007804F02A
:1030D0003BFA10BD2DE9F04704000D0016006078A2
:1030E000032802D1EDB2062D00D07DE0FDF7F7FBFD
:1030F0008246BAF1000F77D030680078302803DBC1
:10310000306800783A280DDBB088401EB080B08867
:10311000002803D15046FDF71FFC65E03068401CD5
:103120003060E9E70020814630680078302819DBFC
:10313000306800783A2815DA0A2000FB09F930686F
:103140000078303810EB0909B088401EB080B08894
:10315000002803D15046FDF7FFFB45E03068401CD6
:103160003060E1E79AF8000010F0E70050F0080046
:103170008AF8000000208AF801005A208AF80A0024
:1031800066208AF80B00002007005FEA1940FFB2B2
:103190000AEB070188737F1C5FEA1920FFB20AEB74
:1031A000070188737F1CFFB20AEB070080F80E90BE
:1031B0007F1CFFB2AAF80C70BAF80C00001D0700C3
:1031C000FFB2390089B21AF10A0000F0C1FE804650
:1031D000FFB20AEB070080F80A80200004F0BCFA76
:1031E0005146A07800F0A5FCBDE8F08710B582B08C
:1031F0000400DFF8680A0090002300220021DFF8B5
:103200005008007804F0BEF813BD2DE9F047040023
:103210000D0016006078042802D1EDB2062D00D012
:103220007DE0FDF75CFB8246BAF1000F77D0306895
:103230000078302803DB306800783A280DDBB0884E
:10324000401EB080B088002803D15046FDF784FBB3
:1032500065E03068401C3060E9E700208146306856
:103260000078302819DB306800783A2815DA0A200F
:1032700000FB09F930680078303810EB0909B08894
:10328000401EB080B088002803D15046FDF764FB93
:1032900045E03068401C3060E1E79AF8000010F02B
:1032A000E70050F008008AF8000000208AF80100CA
:1032B0005A208AF80A0066208AF80B0000200700CE
:1032C0005FEA1940FFB20AEB070188737F1C5FEACF
:1032D0001920FFB20AEB070188737F1CFFB20AEBCB
:1032E000070080F80E907F1CFFB2AAF80C70BAF8A5
:1032F0000C00001D0700FFB2390089B21AF10A0064
:1033000000F026FE8046FFB20AEB070080F80A8034
:10331000200004F021FA5146A07800F00AFCBDE834
:10332000F08738B50400DFF8383900220021DFF8D3
:103330002007007804F077F80500EDB2002D03D1E6
:103340007520DFF82019087031BD0000DC930020E3
:103350002DE9F84304000D0016006078052840F0C0
:103360008780FDF7BCFA8146B9F1000F00F080803C
:1033700099F8000010F0E70050F0080089F800000C
:10338000002089F801005A2089F80A00672089F88E
:103390000B0000200700EDB2002D02D0012D1BD044
:1033A00039E03800C0B2B18880B2884213D23068A8
:1033B000FFB2C05D0D2804D03068FFB2C05D0A289E
:1033C00000D108E03068FFB2C05DFFB209EB070131
:1033D00088737F1CE5E730E04E20FFB209EB070160
:1033E00088737F1C6F20FFB209EB070188737F1C75
:1033F0004120FFB209EB070188737F1C6320FFB2F5
:1034000009EB070188737F1C6B20FFB209EB0701F2
:1034100088737F1C11E04520FFB209EB0701887318
:103420007F1C5220FFB209EB070188737F1C5220DA
:10343000FFB209EB070188737F1CFFB2A9F80C707B
:10344000B9F80C00001D0700FFB2390089B219F16C
:103450000A0000F07DFD8046FFB209EB070080F80E
:103460000A80200004F078F94946A07800F061FB5A
:10347000BDE8F18310B50400DFF8EC37002200212D
:10348000DFF8CC05007803F0FBFF10BD2DE9F84311
:1034900004000D0016006078052855D1FDF71FFACD
:1034A0008146B9F1000F4FD099F8000010F0E70005
:1034B00050F0080089F80000002089F801005A2027
:1034C00089F80A00682089F80B0000200700EDB297
:1034D000002D0CD14F20FFB209EB070188737F1C30
:1034E0004B20FFB209EB070188737F1C11E04520D8
:1034F000FFB209EB070188737F1C5220FFB209EB72
:10350000070188737F1C5220FFB209EB0701887303
:103510007F1CFFB2A9F80C70B9F80C00001D070061
:10352000FFB2390089B219F10A0000F011FD80469E
:10353000FFB209EB070080F80A80200004F00CF9C4
:103540004946A07800F0F5FABDE8F18310B5040013
:10355000DFF818370022211DDFF8F404007803F0AB
:103560008FFF10BD70472DE9F84F04000D001600C5
:103570006078012840F08880FDF7B1F98346BBF1FF
:10358000000F00F081809BF8000010F0E70050F081
:1035900008008BF8000000208BF801005A208BF8FF
:1035A0000A0070208BF80B0000200700EDB2022DFE
:1035B00035D1B088112803D25846FDF7CDF963E024
:1035C0003068824608220C21504604F083F9814677
:1035D0005FEA1960FFB20BEB070188737F1C5FEA9B
:1035E0001940FFB20BEB070188737F1C5FEA1920BB
:1035F000FFB20BEB070188737F1CFFB20BEB0700D8
:1036000080F80E907F1C022202211AF10F0004F0B4
:1036100061F9FFB20BEB070188737F1C19E03800DA
:10362000C0B2B18880B2884213D23068FFB2C05DA8
:103630000D2804D03068FFB2C05D0A2800D108E030
:103640003068FFB2C05DFFB20BEB070188737F1CCF
:10365000E5E7FFB2ABF80C70BBF80C00001D0700EB
:10366000FFB2390089B21BF10A0000F071FC8046FC
:10367000FFB20BEB070080F80A80200004F06CF822
:103680005946A07800F055FABDE8F18F10B5040056
:10369000DFF8DC350022E11CDFF8B403007803F02A
:1036A000F5FD10BD2DE9F04704000D001600FDF7F3
:1036B00016F98246BAF1000F00F0C2809AF80000B5
:1036C00010F0E70050F008008AF8000000208AF8A7
:1036D00001005A208AF80A00DFF88805007871385E
:1036E00004280AD8DFF87C0500788AF80B0000204F
:1036F0000700EDB2022D4CD103E05046FDF72CF946
:103700009EE002220221306804F0E4F881465FFA6C
:1037100089F9B9F1C00F08D077D3B9F1C20F1ED023
:1037200010D3B9F1C30F27D06FE05020FFB20AEBDE
:10373000070188737F1C0420FFB20AEB070188731E
:103740007F1C62E05020FFB20AEB070188737F1CE8
:103750000820FFB20AEB070188737F1C55E0502058
:10376000FFB20AEB070188737F1C0620FFB20AEB49
:10377000070188737F1C48E05020FFB20AEB070165
:1037800088737F1C0520FFB20AEB070188737F1C3A
:103790003BE0EDB2012D1ED14E20FFB20AEB070136
:1037A00088737F1C6F20FFB20AEB070188737F1CB0
:1037B0004120FFB20AEB070188737F1C6320FFB230
:1037C0000AEB070188737F1C6B20FFB20AEB07012D
:1037D00088737F1C19E03800C0B2B18880B288427B
:1037E00013D23068FFB2C05D0D2804D03068FFB23C
:1037F000C05D0A2800D108E03068FFB2C05DFFB2AA
:103800000AEB070188737F1CE5E7FFB2AAF80C708A
:10381000BAF80C00001D0700FFB2390089B21AF196
:103820000A0000F095FB8046FFB20AEB070080F823
:103830000A80200003F090FF5146A07800F079F94B
:10384000BDE8F08738B50400DFF8280400900023B5
:10385000C322E11C7E48007803F04EFD0500EDB266
:10386000002D03D17120DFF8FC13087031BD38B58D
:103870000400DFF8000400900023C122E11C74481A
:10388000007803F039FD0500EDB2002D03D1722060
:10389000DFF8D013087031BD38B50400DFF8D40369
:1038A00000900023C422E11C6948007803F024FD45
:1038B0000500EDB2002D03D17320DFF8A8130870C6
:1038C00031BD38B50400DFF8AC0300900023C222FC
:1038D000E11C5F48007803F00FFD0500EDB2002DFC
:1038E00003D17420DFF87C13087031BD38B50400B3
:1038F000DFF8800300900023C022E11C54480078C8
:1039000003F0FAFC0500EDB2002D02D17520D54977
:10391000087031BD209A0020912B000830B583B08B
:10392000040020785A2872D100200500EDB2042D41
:1039300029DAD148EDB2502101FB05F1405C10F0CD
:10394000010000281DD1CC48EDB2502101FB05F14A
:103950000844C07A9C2814D1C748EDB2502101FB1D
:1039600005F1084480783A490978884209D1C2486B
:10397000EDB2502101FB05F10844407BE17888421B
:1039800001D06D1CD2E7EDB2042D5EDABA48EDB27B
:10399000502101FB05F10844406800280FD02100A8
:1039A000B548EDB2502202FB05F21044B24AEDB226
:1039B000502303FB05F31A44526890471EE0AE48BB
:1039C000EDB2502101FB05F108444078002815D0E4
:1039D0009DF8000010F0FE008DF80000019400201A
:1039E0008DF80100A448EDB2502101FB05F1084417
:1039F00040788DF802006846FCF77CFC9E48EDB2EA
:103A0000502101FB05F10844FCF7A6FF1DE09DF8DD
:103A1000000010F0FE008DF8000001940C480078C2
:103A20008DF80100E078C0B2000905000A20454386
:103A3000E07810F00F0045192800C0B2FCF780FBB9
:103A40008DF802006846FCF755FC37BD792C00085C
:103A50009D9C00201CB4010000220020D2B2042A48
:103A60000EDAC9B20A2391FBF3F403FB14136C467C
:103A7000D2B2A354521CC9B20A2391FBF3F1EDE771
:103A800013005A1EDBB2002B05D000016B46D2B2E8
:103A90009B5C1843F4E780B216BC7047F8B504008D
:103AA0000D0000262F002878FE2802D02878DF2875
:103AB00003D116F108003F1A0AE02878A52802D0A1
:103AC00028785A2803D116F10A003F1A00E002E0D4
:103AD0003800FCF741FFF1BDF8B5040000250026D1
:103AE00027002078FE2802D02078DF2803D116F1A5
:103AF00008003F1A0AE02078A52802D020785A282A
:103B000003D116F10A003F1A00E011E03E00300038
:103B1000FCF7D1FE0500EDB2002D06D1706800283B
:103B200003D000213000726890473000FCF714FF8A
:103B3000F1BD2DE9FF4104000D00002D02D0E4B2DB
:103B4000002C01D1652080E02878C0F3C100C0B20C
:103B5000002820D12878C0F34000C0B2002811D03E
:103B6000A87AA52804D1FE202872FE20687203E0FE
:103B7000DF202872DF2068720620804615F10800D9
:103B8000060004E00420804615F10A000600287BA8
:103B900010EB080835E02878C0F34000C0B20028D8
:103BA00011D0A87AA52804D1FE202872FE206872C0
:103BB00003E0DF202872DF2068720620804615F1BE
:103BC0000800060004E00420804615F10A00060003
:103BD000A88910EB0808A88980B2000A0700A88904
:103BE00057EA0027AF81414689B215F10A0000F07B
:103BF000AFF907001FFA88F805EB0800877218F183
:103C00000108A87AA52810D11C4803900020029032
:103C1000022001901E2000900723424692B23100FC
:103C20002000C0B200F0E7FB0FE000200390144832
:103C3000029001200190502000900023424692B251
:103C400031002000C0B200F0D6FB04B0BDE8F08126
:103C50004F2D0008B92E0008FD2F0008D5300008B0
:103C60000B3200089E9C0020513300088D34000860
:103C700067350008A5360008DC930020D93A000813
:103C80009D3A0008F0B585B004000D0016001F0035
:103C900020788DF8000060788DF80100A0788DF80C
:103CA000020000208DF80300D9208DF806008DF861
:103CB0000560EDB2002D03D120788DF8070001E0FA
:103CC0008DF807506846029004208DF80C00049788
:103CD0009DF8040010F0FE008DF804009DF804002B
:103CE00050F002008DF8040001A8FCF793FA05B02B
:103CF000F0BD2DE9F04186B004000D0016001F0054
:103D0000DDF83080E4B2F12C02D0E4B2F52C02D11F
:103D1000F120040010E0E4B2F42C02D0E4B2FA2C5A
:103D200002D1F420040007E0E4B2F62C04D0E4B29F
:103D3000F22C01D078202EE028788DF800006878E9
:103D40008DF80100A8788DF8020000208DF803009E
:103D50008DF806408DF80570F6B2002E03D1287854
:103D60008DF8070001E08DF8076068460290042096
:103D70008DF80C00CDF810809DF8040010F0FE00C6
:103D80008DF804009DF8040050F002008DF8040046
:103D900001A8FCF73FFA06B0BDE8F0812DE9F0413B
:103DA00086B004000D0016001F00E4B20A2094FB48
:103DB000F0F100FB11408DF80000E4B20A2094FB02
:103DC000F0F080465FFA88F80A2098FBF0F100FBDB
:103DD00011885FEA08189DF8000058EA00008DF885
:103DE00000008DF801508DF8056099208DF80600CF
:103DF0008DF807406846029002208DF80C00049769
:103E00009DF8040010F0FE008DF8040001A8FCF7F6
:103E100001FA06B0BDE8F081F0B585B004000D00F0
:103E20001600E4B20A2094FBF0F100FB11408DF87B
:103E30000000E4B20A2094FBF0F00700FFB20A2071
:103E400097FBF0F100FB11773F019DF8000038432C
:103E50008DF8000000208DF801008DF805509820A5
:103E60008DF806008DF807406846029002208DF814
:103E70000C0004969DF8040010F0FE008DF804007C
:103E800001A8FCF7C7F905B0F0BDF0B585B0040096
:103E90000D001600E4B20A2094FBF0F100FB114083
:103EA0008DF80000E4B20A2094FBF0F00700FFB2A6
:103EB0000A2097FBF0F100FB11773F019DF800000D
:103EC00038438DF8000000208DF801008DF8055072
:103ED0009D208DF806008DF807406846029002206C
:103EE0008DF80C0004969DF8040010F0FE008DF88B
:103EF00004009DF8040010F0FD008DF8040001A8F6
:103F0000FCF788F905B0F0BD10B402000020C9B27A
:103F1000002907D00D4BC0B214786040185C521CC9
:103F2000491EF4E7C0B210BC704730B40300100063
:103F3000C9B2002907D0054CC0B21D786840205C8A
:103F40005B1C491EF4E7C0B230BC7047B4410108A5
:103F500070B504000D00ADB2C92D1FDBC8212000D3
:103F6000FFF7D2FF0600C83DC834ADB2C92D09DB4A
:103F70003200D2B2C8212000FFF7D7FF0600C83DAB
:103F8000C834F2E7ADB2002D0ED03200D2B2290013
:103F9000C9B22000FFF7C9FF060005E02900C9B239
:103FA0002000FFF7B1FF06003000C0B270BD4F4BDC
:103FB00080B500F0B0FA01BDF8B5002400F044F877
:103FC0000400E4B2002C3ED1DFF84C0C0278DFF89C
:103FD000480C4178DFF8440CFCF7BDFA0400E4B269
:103FE000002C0AD0DFF8300C0278DFF82C0C417876
:103FF000DFF8280C03F0AEFC0400E4B2002C0AD079
:10400000DFF8140C0278DFF8100C4178DFF80C0CA4
:1040100005F055FA0400E4B2002C09D0DFF8F80BE3
:104020000278DFF8F40B4178DFF8F00B02F0E1FFE3
:104030004FF480750026DFF8E47B32002900380059
:1040400006F002FBBAE7F1BDF8B500200700380022
:10405000471CC0B2042880F28680DFF8C40B0078C9
:10406000012806D07AD303285FD030D3042870D03B
:1040700074E000F03BFE0500002D20D06878DFF8EA
:10408000981B4870A81C0600002004002000DFF8E0
:10409000881B4978C0B2884208D2E4B2305DDFF8AC
:1040A000781BE4B221448870641CEFE71020DFF82D
:1040B000681B0870280000F033FE002054E0DFF891
:1040C000600B0078401CDFF8581B0870BFE701F058
:1040D00083F90500002D20D0A878DFF83C1B48703C
:1040E000E81C0600002004002000DFF82C1B4978A3
:1040F000C0B2884208D2E4B2305DDFF81C1BE4B2E3
:1041000021448870641CEFE76878DFF80C1B0870A6
:10411000280001F07BF9002026E0DFF8040B00788E
:10412000401CDFF8FC1A087091E7DFF8F40A007809
:10413000401CDFF8EC1A0870DFF8DC0A00F085FAA2
:10414000DFF8D40A4078002801D000200CE06E206F
:104150000AE00120DFF8C81A087078E70120DFF8CC
:10416000C01A087073E76E20F2BD2DE9F04782B0E7
:1041700004000D0016001F00DDF828805FF0000924
:10418000E4B22000401E01280ED9C01E0CD0001F32
:104190006ED0083800F0E380303800F0F680403808
:1041A000032840F2E580F1E02000C0B206F0A5FA55
:1041B00001280ED12000C0B201F04EFC012808D128
:1041C00043463A00310089B2280001F011FD8146D2
:1041D0004DE00F2006F091FA00280BD10F2001F0DE
:1041E0003BFC002806D12000C0B201F087FC66200D
:1041F00081463CE0002082465FFA8AFABAF1100F4D
:1042000027DADFF8200A5FFA8AFA182101FB0AF19F
:10421000405C10F00100002818D101F0E2FCDFF84A
:10422000041A5FFA8AFA182202FB0AF2114489780A
:10423000C0B288420AD1DFF8EC095FFA8AFA182185
:1042400001FB0AF108448068854202D11AF1010A93
:10425000D2E75FFA8AFABAF1100F02DA66208146D5
:1042600005E02000C0B201F049FC662081468FE0E5
:104270002000C0B201F0F0FB012808D143463A000B
:10428000310089B2280001F0B3FC814666E00F20BE
:1042900001F0E2FB002806D12000C0B201F02EFCA4
:1042A000662081465AE0002082465FFA8AFABAF117
:1042B000100F45DADFF86C095FFA8AFA182101FB62
:1042C0000AF1405C10F00100002836D1DFF85409F3
:1042D0005FFA8AFA182101FB0AF108448078012864
:1042E00020D0DFF840095FFA8AFA182101FB0AF1B1
:1042F00008448078022815D0DFF828095FFA8AFA86
:10430000182101FB0AF10844807804280AD0DFF85C
:1043100014095FFA8AFA182101FB0AF1084480782F
:1043200008280AD1DFF8FC085FFA8AFA182101FB95
:104330000AF108448068854202D11AF1010AB4E703
:104340005FFA8AFABAF1100F02DA6620814605E0B8
:104350002000C0B201F0D2FB6620814618E043463F
:104360003A00310089B2280000F089FF81460FE051
:10437000CDF800803B00320092B22900B4F18000F9
:10438000C0B206F0FFFE814602E001E0652001E0D8
:104390004846C0B2BDE8F687F8B504000D00002617
:1043A0002F007878C0B20009C0B200281CD0B868CD
:1043B00000903B69BA88B968B878FFF7D6FE060066
:1043C000B878812805D0B878822802D0B87810282B
:1043D00006D1F6B2002E0DD178781038787009E049
:1043E00078781038787005E07869002802D0B868CD
:1043F00079698847F1BD2DE9F44F82B006000F00BE
:1044000098460C9C0D9DDDF838905FF0000B0097EE
:104410004B46BDF8082039003000C0B2FFF7A5FEBA
:1044200083465FFA8BFBBBF1650F02D15846C0B2E1
:104430006FE05FFA8BFBBBF1000F09D15FFA88F8E0
:10444000B8F1000F27D1A4B2002C24D1002060E0E5
:104450005FFA8BFBBBF1710F0FD1F6B2012E08D0C2
:10446000F6B2022E05D0F6B2042E02D0F6B2082E15
:1044700003D13000C0B201F041FB5FFA88F8B8F117
:10448000000F06D101208046142004000220050000
:1044900001E018F1010800F05DF88246BAF1000F62
:1044A00001D1672035E0CDF800A0DFF87C3701228C
:1044B0002900C9B2200080B207F053F9CAF80C00F5
:1044C000DAF80C00002804D1504600F06DF867209F
:1044D0001FE0CAF80870BDF80800AAF804008AF8BE
:1044E00002609AF8010068F303008AF801009AF864
:1044F000010010F00F0050EA08108AF80100CAF815
:1045000010900F98CAF81400DAF80C0007F06FF951
:104510000020BDE8FE8F0020C0B2102819DA00216B
:10452000DFF80027C0B2182303FB00F3D154DFF8F3
:10453000F416C0B2182202FB00F2895C51F00101AE
:10454000DFF8E026C0B2182303FB00F3D154401C6F
:10455000E2E770470021C9B2102923DADFF8C40668
:10456000C9B2182202FB01F2805C10F001000028A1
:1045700016D0DFF8B006C9B2182202FB01F2805C47
:1045800010F0FE00DFF89C26C9B2182303FB01F3EC
:10459000D054DFF89006C9B218225143084402E013
:1045A000491CD8E70020704710B50400002C0CD03F
:1045B000E068002803D014F10C0007F038F900205F
:1045C0002070207850F00100207010BD38B5040034
:1045D0000025EDB2102D37DADFF84806EDB21821CC
:1045E00001FB05F10844806884422BD1DFF83406D2
:1045F000EDB2182101FB05F10844C068002809D07C
:10460000DFF82006EDB2182101FB05F108440C305B
:1046100007F00DF90020DFF80C16EDB2182202FBAE
:1046200005F28854DFF8FC05EDB2182101FB05F115
:10463000405C50F00100DFF8EC15EDB2182202FBEF
:1046400005F288546D1CC4E731BD70B582B004001A
:10465000FF208DF80000002501F090FB0600002EE1
:1046600002D10020607077E07078DFF8C015888094
:10467000B01CDFF8B8150860DFF8B015684607F021
:1046800061FC9DF80000042821DADFF8A00580888D
:1046900060708020207020789DF80010081820702D
:1046A000DFF888058088411EDFF88025918080B280
:1046B00000284ED0DFF874050068DFF8701589888F
:1046C000405CDFF86815898821448870E8E7DFF8E6
:1046D0006015DFF85805006808F09AFB002838D00C
:1046E000DFF848058088002833D0DFF84415DFF86C
:1046F0003C05006808F08CFB0500687A302828DB50
:10470000687A342825DA687A30388DF800008020FD
:10471000207020789DF8001008182070DFF80C0534
:1047200080886070DFF804058088411EDFF8FC2473
:10473000918080B200280CD0DFF8F0040068DFF828
:10474000EC148988405CDFF8E4148988214488707F
:10475000E8E7300001F052FB73BD0100C9B2012946
:1047600003D1DFF8D004407807E0C9B2022903D1B1
:10477000DFF8C004407A00E00020704738B505003B
:104780000C00EDB2012D02D0EDB2022D4AD16D1E0A
:10479000DFF8A004EDB210F8350050F00100DFF8AA
:1047A0009414EDB201F83500DFF88804EDB210F88A
:1047B000350050F00200DFF87C14EDB201F835004E
:1047C000DFF87004EDB210F8350010F0FB00DFF8F0
:1047D0006414EDB201F83500DFF85804EDB210F8BA
:1047E000350010F0F700DFF84C14EDB201F8350099
:1047F000DFF84004EDB210F8350010F0DF00DFF80C
:104800003414EDB201F83500DFF82804EDB200EB06
:10481000C5004470DFF81C04EDB200EBC500001DBC
:1048200007F005F831BD31B586B00C00002C0CD175
:1048300006A806F0FCFF012000F090F9022000F02D
:104840008DF9002005F0A0FF46E120780500EDB2CB
:10485000012D03D0EDB2022D40F083800698DFF8E1
:10486000D413EDB201EBC50151F8041C884202D00B
:1048700006A806F0DCFFDFF8BC03EDB200EBC500D4
:1048800010F8060C05281DDB01221E21069806F0F3
:104890009AFF0020DFF89C13EDB201EBC50101F88F
:1048A000060CDFF89003EDB200EBC50010F8080C21
:1048B00050F02000DFF87C13EDB201EBC50101F8E8
:1048C000080C04E001220321069806F07CFFDFF8C3
:1048D00064030078C0F34010C0B2002811D0DFF8A4
:1048E0005403007AC0F34010C0B2002809D0012060
:1048F00000F034F9022000F031F9002005F044FF07
:10490000EAE0CC480078C0F34010C0B200280ED0D6
:10491000C848007A0521084209D1012000F01EF99B
:10492000022000F01BF9002005F02EFFD4E0C14862
:10493000007AC0F34010C0B200280ED0BD48007805
:104940000521084209D1012000F008F9022000F0F9
:1049500005F9002005F018FFBEE0EDB2012D46D1AB
:1049600003E006A806F063FFB6E0B348007E002827
:104970000BD1B148407E002807D1AF48807E002887
:1049800003D1AD48C07E002821D054208DF800000E
:1049900001208DF8020006F097FD8DF80500A6486D
:1049A000007E8DF80600A448407E8DF80700A248DE
:1049B000807E8DF80800A048C07E8DF809009E48D2
:1049C000808FADF80A0000208DF8040061E000201F
:1049D00098494870002097490872002095498870CE
:1049E000964806F024FF06A806F021FF74E0EDB219
:1049F000022D4AD1904890F83E0000280ED18E48F2
:104A000090F83F00002809D18B4890F8400000281A
:104A100004D1894890F84100002826D054208DF810
:104A2000000001208DF8020006F04EFD8DF8050013
:104A3000814890F83E008DF806007F4890F83F00CE
:104A40008DF807007C4890F840008DF808007A48FF
:104A500090F841008DF809007748B0F86200ADF891
:104A60000A0000208DF8040013E00020714948720C
:104A700000207049087200206E498872704806F064
:104A8000D6FE06A806F0D3FE26E006A806F0CFFE66
:104A900022E041F2707300220021684607F0D2F94B
:104AA000002815D16348EDB200EBC50010F8060CE4
:104AB00064280CDA5F48EDB200EBC50010F8060C74
:104AC000401C5C49EDB201EBC50101F8060C03E0A6
:104AD0009DF8050006F01AFD07B030BD10B582B094
:104AE0000400E4B2012C02D0E4B2022C35D1641EE1
:104AF0005048E4B210F83400C0F38000C0B200287F
:104B00002BD1601CC0B200F029F84E48E4B220441A
:104B1000401C00904C4B01220421032006F021FE92
:104B20004449E4B201EBC40148604248E4B200EBFE
:104B3000C4004068002810D03E48E4B210F83400A9
:104B400050F004003B49E4B201F834003948E4B2C3
:104B500000EBC400406806F04AFE13BD38B50500FE
:104B6000EDB2012D02D0EDB2022D3FD16D1E00201D
:104B70003049EDB201F8350000202E49EDB201EBCD
:104B8000C50188702B48EDB200EBC500001D06F092
:104B90004EFE2848EDB200EBC5004078802814D0C6
:104BA0002448EDB200EBC500407881280DD02148A3
:104BB000EDB200EBC5004078822806D01D48EDB26A
:104BC00000EBC500407883280AD11A48EDB200EB0B
:104BD000C5004078803804002000C0B206F096FC82
:104BE00000201449EDB201EBC501487031BD10B58C
:104BF0000400104840782100C9B2884202D1012047
:104C0000FFF76CFF0B48407A2100C9B2884202D1FD
:104C10000220FFF763FF10BD5C9800205E98002023
:104C2000390000201C91002099430008009C0020BE
:104C300050450108A89B0020A89A0020AC9B0020AA
:104C4000B49B0020384501082748000810B500240F
:104C5000E4B2042C19DA0020DFF8A81CE4B24222E6
:104C600002FB04F28854DFF89C0CE4B2422101FB01
:104C700004F1405C50F00200DFF8881CE4B24222EC
:104C800002FB04F28854641CE2E700F004F8DFF849
:104C9000981A086010BD0021C9B2042924DADFF88F
:104CA000640CC9B2422202FB01F2805CC0F34000F6
:104CB000C0B2002816D0DFF84C0CC9B2422202FB69
:104CC00001F2805C10F0FD00DFF8382CC9B24223FD
:104CD00003FB01F3D054DFF82C0CC9B2422251433C
:104CE000084402E0491CD7E7002070470021C9B200
:104CF000042913DADFF80C0CC9B2422202FB01F2DC
:104D0000805C10F00100002806D0DFF8F80BC9B273
:104D100042225143084402E0491CE8E70020704762
:104D200010B50400002C05D000202070207850F031
:104D300002002070DFF8F0090068002844D1FFF776
:104D4000AAFFDFF8E41908600020DFF8E019088006
:104D5000DFF8D4090068002836D0DFF8D4090078DD
:104D6000022831D1DFF8E4090068000C0004DFF804
:104D7000DC1908604020DFF8D8190860DFF8D40992
:104D8000DFF8D4190860DFF8A0090068801CDFF89C
:104D9000CC190860DFF8B409006840F4005050F006
:104DA0008B00DFF8A8190860DFF8B409008850F01C
:104DB0001000DFF8AC190880DFF8940C008850F080
:104DC0004000DFF88C1C088010BD80B5DFF8940926
:104DD0000088022815DBDFF8900900680078DFF80A
:104DE00074190880DFF880090068401CDFF8781922
:104DF0000860DFF870090088401EDFF86819088035
:104E000037E0DFF860090088012820D1002240F255
:104E10002771DFF8580908F0D3F8012240F2266123
:104E2000DFF8480908F0CCF8DFF83C0900680078A2
:104E3000DFF820190880DFF830090068401CDFF82F
:104E4000281908600020DFF81C19088011E00022F2
:104E500040F22771DFF8140908F0B2F8002240F29E
:104E60002661DFF8080908F0ABF80120DFF8E41B41
:104E7000087001BD80B5002240F22661DFF8EC0821
:104E800008F09EF8DFF8E808006800280BD0DFF88B
:104E9000E40801681020DFF8D82812689047002045
:104EA000DFF8CC1808600120DFF8A81B087001BDEE
:104EB000DFF874080068002821D0DFF87008008847
:104EC00040280ADBDFF860080068007850F0040032
:104ED000DFF854180968087011E0DFF878080088D6
:104EE000DFF844180968DFF84428128811448870F4
:104EF000DFF838080088401CDFF830180880DFF839
:104F00006C0800884FF6E0710840DFF860180880F0
:104F1000DFF84C08008850F01000DFF844180880D3
:104F2000704710B5DFF82C08008880B20400DFF865
:104F3000F807006800282FD0DFF8F4070078012870
:104F400011D1DFF8E8070088DFF8DC17096848703E
:104F5000DFF8D4070068007850F00100DFF8C817C8
:104F60000968087018E0DFF8C8070078022813D134
:104F7000DFF8DC0700680400D4F14000DFF8A81770
:104F800009684870DFF8A0070068007850F0010059
:104F9000DFF8941709680870FFF77DFEDFF88817BF
:104FA00008600020DFF884170880DFF884070078A5
:104FB000022848D1DFF870070068002832D0DFF8F7
:104FC0008C070068000C0004DFF8801708604020A0
:104FD000DFF87C170860DFF87C07DFF87C170860D3
:104FE000DFF844070068801CDFF870170860DFF8FE
:104FF0005C07006840F4005050F08B00DFF84C175D
:105000000860DFF85C07008850F01000DFF85017E8
:105010000880DFF8D80B008850F04000DFF8CC1B88
:10502000088010E0DFF82407006840084000DFF83F
:105030001C170860DFF8B40B00884FF6BF710840FA
:10504000DFF8A81B088010BD80B5DFF824070068D2
:1050500000280BD0DFF81C0701681020DFF81027AC
:10506000126890470020DFF8081708600120DFF879
:10507000E419087001BD80B5DFF8AC060068FFF7E1
:105080004FFE0020DFF8A016086001BDF0B587B024
:1050900004000D0016001F00FFF7D8FD0120DFF807
:1050A000B41908700121012008F0FFF801215FF414
:1050B000802008F009F90121202008F0F6F80121EC
:1050C000DFF8300A08F019FA4FF48070ADF80000EC
:1050D00018208DF8030003208DF802006946DFF8E0
:1050E000180A08F069F94FF40070ADF800000420C8
:1050F0008DF803006946DFF8000A08F05DF9DFF873
:105100006C0607F08DFE02940020ADF814000C2010
:10511000ADF81200ADF81050ADF80E602DB2B5F537
:10512000806F03D02DB2B5F5C06F04D14FF480501D
:10513000ADF80C0002E00020ADF80C0002A9DFF889
:105140002C0607F0B5FE012240F22551DFF81C06BF
:1051500007F036FF27208DF8040000208DF80500A9
:1051600000208DF8060001208DF8070001A808F046
:105170003CFADFF8BC050770DFF8B40500780128B9
:1051800012D1012240F22551DFF8E00507F018FFA7
:10519000012240F22441DFF8D40507F011FF00207E
:1051A000DFF88815088006E0DFF88405007802281B
:1051B00001D100F00CF80121DFF8B00507F0F2FE94
:1051C0004021DFF8A80507F026FF07B0F0BD80B545
:1051D000DFF85405006800280BD1FFF75CFDDFF80D
:1051E00048150860DFF840050068002801D16720F5
:1051F00044E0DFF8F409006850F00100DFF8E81936
:105200000860DFF848050068000C0004DFF83C1572
:1052100008604020DFF838150860DFF83805DFF84F
:1052200038150860DFF800050068801CDFF82C15D1
:105230000860DFF81805006840F4005050F08B005B
:10524000DFF808150860002240F22551DFF81C0540
:1052500007F0B6FE012240F22441DFF8100507F006
:10526000AFFEDFF8EC07008850F04000DFF8E017F1
:1052700008800220DFF8B8140870002002BD30B4A6
:105280000400DFF8D0070078022801D1662038E05A
:105290000220DFF8C0572870DFF8D4040260DFF87E
:1052A000D4040360DFF84009006850F00100DFF823
:1052B00038592860DFF8140A0068000C0004DFF891
:1052C0000C5A286089B2DFF8080A0160DFF884040C
:1052D000DFF8005A2860DFF8000A0460DFF8EC0904
:1052E000006840F4005050F09B00DFF8E05928605F
:1052F000DFF8F808008850F08000DFF8F0582880C8
:10530000002030BC704780B5DFF8D00A007805F087
:10531000F4F9012803D1DFF8C40A007800E0002086
:1053200002BD10B50024E4B2042C19DA0020DFF825
:105330007C1CE4B2432202FB04F28854DFF86C0CBC
:10534000E4B2432101FB04F1405C50F00200DFF8BD
:105350005C1CE4B2432202FB04F28854641CE2E7C2
:1053600000F004F8DFF8781A086010BD0021C9B217
:1053700004292FDADFF8340CC9B2432202FB01F210
:10538000805CC0F34000C0B2002821D0DFF81C0CC4
:10539000C9B2432202FB01F2805C10F0FD00DFF88D
:1053A0000C2CC9B2432303FB01F3D054DFF82C0AC1
:1053B0000078DFF8F82BC9B2432303FB01F31A444A
:1053C0005070DFF8E80BC9B243225143084402E0B1
:1053D000491CCCE7002070470021C9B2042913DA28
:1053E000DFF8C80BC9B2432202FB01F2805C10F067
:1053F0000100002806D0DFF8B40BC9B243225143A4
:10540000084402E0491CE8E70020704710B504009A
:10541000002C05D000202070207850F00200207071
:10542000DFF8BC090068002844D1FFF79FFFDFF8D0
:10543000B01908600020DFF8AC190880DFF8A8096F
:105440000078022836D1DFF898090068002831D0AA
:10545000DFF898090068000C0004DFF89019086074
:105460004020DFF88C190860DFF88809DFF8881918
:105470000860DFF86C090068C01CDFF8301A0860AB
:10548000DFF86809006840F4005050F08B00DFF846
:105490005C190860DFF8180A008850F01000DFF887
:1054A000101A0880DFF8A80C008850F04000DFF8E0
:1054B000A01C088010BD80B5DFF8F809008802281C
:1054C00015DBDFF8F40900680078DFF82819088098
:1054D000DFF8E4090068401CDFF8DC190860DFF839
:1054E000D4090088401EDFF8CC1908803BE0DFF8C3
:1054F000C4090088012820D1002240F22771DFF87A
:10550000BC0907F05DFD012240F22661DFF8AC091D
:1055100007F056FDDFF8A00900680078DFF8D4181E
:105520000880DFF894090068401CDFF88C190860D7
:105530000020DFF88019088015E0002240F2277172
:10554000DFF8780907F03CFD002240F22661DFF821
:105550006C0907F035FD8020DFF8101A0860012083
:10556000DFF8281C087001BD80B5002240F22661DA
:10557000DFF8480907F024FD8020DFF8F019086003
:10558000DFF82C0A006800280DD0DFF8280A01682F
:10559000DFF848080078DFF8182A126890470020E2
:1055A000DFF80C1A08600120DFF8E01B087001BD6D
:1055B000DFF82C080068002821D0DFF828080088D0
:1055C00040280ADBDFF818080068007850F0040073
:1055D000DFF80C180968087011E0DFF81808008877
:1055E000DFF8FC170968DFF8FC2712881144C8703F
:1055F000DFF8F0070088401CDFF8E81708807047E4
:1056000010B5DFF8F007008880B20400DFF8D0079B
:10561000006800282FD0DFF8D0070078012811D1CA
:10562000DFF8C0070088DFF8B81709688870DFF86E
:10563000B0070068007850F00100DFF8A41709688F
:10564000087018E0DFF8A0070078022813D1DFF80F
:10565000A00700680400D4F14000DFF8841709684F
:105660008870DFF87C070068007850F00100DFF8F0
:10567000701709680870FFF779FEDFF86417086093
:105680000020DFF860170880DFF85C070078022848
:1056900048D1DFF84C070068002832D0DFF84C070B
:1056A0000068000C0004DFF8441708604020DFF8B1
:1056B00040170860DFF83C07DFF83C170860DFF8A8
:1056C00020070068C01CDFF8E4170860DFF81C073B
:1056D000006840F4005050F08B00DFF810170860AD
:1056E000DFF8CC07008850F01000DFF8C4170880FE
:1056F000DFF83C0C008850F04000DFF8341C0880D4
:1057000010E0DFF8E806006840084000DFF8DC162B
:105710000860DFF81C0C00884FF6BF710840DFF806
:10572000101C088010BD00003C9C0020849C0020C0
:10573000AD9C002080B5DFF8A8060068FFF766FE84
:105740000020DFF89C16086001BD00003000024018
:105750003400024004480040380002403C0002404F
:105760000C480040829C0020389C002000480040EB
:10577000409C0020449C00202DE9F04387B00500A8
:105780000E00170098460E9C5FF000094020DFF8DD
:10579000001A08604020ADF8000010208DF80300CA
:1057A00003208DF802006946DFF8880B07F004FE3D
:1057B0008020ADF8000048208DF803006946DFF82E
:1057C000740B07F0F9FD2800C0B200F0F3F8814631
:1057D0005FFA89F9B9F1000F02D04846C0B28EE0F5
:1057E000DFF8F8050570FFF79CFD8020DFF87C17D7
:1057F00008600120DFF8AC1B08700121012007F0D0
:1058000054FD0121042007F078FE012144F2080034
:1058100007F04BFDDFF8A40607F002FB029600201C
:10582000ADF814000C20ADF81200ADF81070ADF812
:105830000E803FB2B7F5806F03D03FB2B7F5C06FAF
:1058400004D14FF48050ADF80C0002E00020ADF818
:105850000C0002A9DFF8640607F02AFB25208DF86A
:10586000040000208DF8050000208DF806000120BE
:105870008DF8070001A807F0B8FEDFF86C0504708A
:10588000DFF864050078012812D1012240F2255189
:10589000DFF8280607F094FB012240F22441DFF8EC
:1058A0001C0607F08DFB0020DFF83815088006E0A5
:1058B000DFF834050078022801D100F025F8012135
:1058C000DFF8F80507F06EFB4020ADF80000182067
:1058D0008DF8030003208DF802006946DFF8540AB2
:1058E00007F06AFD8020ADF8000048208DF8030025
:1058F0006946DFF8400A07F05FFD4846C0B207B0CE
:10590000BDE8F0835497002080B5DFF8D404006828
:1059100000280BD1FFF72AFDDFF8C4140860DFF878
:10592000C0040068002801D1672042E0AE4800684A
:1059300050F00100AC490860DFF8B0040068000CCA
:105940000004DFF8A81408604020DFF8A414086001
:10595000DFF8A004DFF8A0140860DFF88404006812
:10596000C01CDFF848150860DFF88004006840F4C8
:10597000005050F08B00DFF874140860002240F2F1
:105980002551DFF8380507F01BFB012240F22441C6
:10599000DFF8280507F014FBDFF8B407008850F0A3
:1059A0004000DFF8AC1708800220DFF83C140870D4
:1059B000002002BD10B50400E4B2200000282CD065
:1059C000012806D002280DD0042814D008281BD0A6
:1059D0003AE04A20DFF8941508602020DFF85819D3
:1059E000086033E06220DFF8841508600820DFF8E3
:1059F000481908602AE06820DFF870150860022066
:105A0000DFF83419086021E02A20DFF8601508600B
:105A10004020DFF82419086018E06A20DFF84C15F0
:105A200008600020DFF8B41308700021DFF88C0450
:105A300007F0B8FA0120DFF86C19087000214FF464
:105A4000804007F032FC01E0652000E0002010BD3E
:105A5000144800403A0000200100C9B20A00012A9F
:105A600008D0022A11D0042A1AD0082A23D00F2ADB
:105A70002CD03BE0DFF830291268920602D50022D4
:105A8000100001E00122100032E0DFF81C2912684A
:105A9000120702D50022100001E00122100027E0C9
:105AA000DFF804291268920702D50022100001E0F5
:105AB000012210001CE0DFF8F0281268520602D51F
:105AC0000022100001E00122100011E0DFF8D828C8
:105AD0001268520607D5DFF8D0281268120702D5DF
